{
  "_format": "hh-sol-artifact-1",
  "contractName": "MultiSigWallet",
  "sourceName": "contracts/MultiSigWallet.sol",
  "abi": [
    {
      "inputs": [
        {
          "internalType": "address[]",
          "name": "_owners",
          "type": "address[]"
        },
        {
          "internalType": "uint256",
          "name": "_required",
          "type": "uint256"
        },
        {
          "internalType": "address",
          "name": "_multiSigFactory",
          "type": "address"
        }
      ],
      "stateMutability": "nonpayable",
      "type": "constructor"
    },
    {
      "anonymous": false,
      "inputs": [
        {
          "indexed": true,
          "internalType": "uint256",
          "name": "id",
          "type": "uint256"
        },
        {
          "indexed": true,
          "internalType": "address",
          "name": "creator",
          "type": "address"
        }
      ],
      "name": "CreateCons",
      "type": "event"
    },
    {
      "anonymous": false,
      "inputs": [
        {
          "indexed": true,
          "internalType": "uint256",
          "name": "id",
          "type": "uint256"
        },
        {
          "indexed": true,
          "internalType": "address",
          "name": "creator",
          "type": "address"
        },
        {
          "indexed": false,
          "internalType": "address",
          "name": "to",
          "type": "address"
        },
        {
          "indexed": false,
          "internalType": "uint256",
          "name": "amount",
          "type": "uint256"
        }
      ],
      "name": "CreateTrans",
      "type": "event"
    },
    {
      "anonymous": false,
      "inputs": [
        {
          "indexed": true,
          "internalType": "address",
          "name": "sender",
          "type": "address"
        },
        {
          "indexed": false,
          "internalType": "uint256",
          "name": "amount",
          "type": "uint256"
        }
      ],
      "name": "Deposit",
      "type": "event"
    },
    {
      "anonymous": false,
      "inputs": [
        {
          "indexed": true,
          "internalType": "uint256",
          "name": "id",
          "type": "uint256"
        }
      ],
      "name": "Fail",
      "type": "event"
    },
    {
      "anonymous": false,
      "inputs": [
        {
          "indexed": true,
          "internalType": "uint256",
          "name": "id",
          "type": "uint256"
        }
      ],
      "name": "Success",
      "type": "event"
    },
    {
      "anonymous": false,
      "inputs": [
        {
          "indexed": true,
          "internalType": "uint256",
          "name": "id",
          "type": "uint256"
        },
        {
          "indexed": true,
          "internalType": "address",
          "name": "owner",
          "type": "address"
        },
        {
          "indexed": false,
          "internalType": "bool",
          "name": "isApproved",
          "type": "bool"
        }
      ],
      "name": "Voted",
      "type": "event"
    },
    {
      "inputs": [],
      "name": "consensus",
      "outputs": [
        {
          "internalType": "uint256",
          "name": "totalOwner",
          "type": "uint256"
        },
        {
          "internalType": "uint256",
          "name": "approvalsRequired",
          "type": "uint256"
        }
      ],
      "stateMutability": "view",
      "type": "function"
    },
    {
      "inputs": [
        {
          "internalType": "address[]",
          "name": "_addOwners",
          "type": "address[]"
        },
        {
          "internalType": "address[]",
          "name": "_delOwners",
          "type": "address[]"
        },
        {
          "internalType": "uint256",
          "name": "_approvalsRequired",
          "type": "uint256"
        }
      ],
      "name": "createCons",
      "outputs": [],
      "stateMutability": "nonpayable",
      "type": "function"
    },
    {
      "inputs": [
        {
          "internalType": "address",
          "name": "_to",
          "type": "address"
        },
        {
          "internalType": "uint256",
          "name": "_amount",
          "type": "uint256"
        }
      ],
      "name": "createTrans",
      "outputs": [],
      "stateMutability": "nonpayable",
      "type": "function"
    },
    {
      "inputs": [],
      "name": "getConsChangeInfo",
      "outputs": [
        {
          "components": [
            {
              "internalType": "address[]",
              "name": "addOwners",
              "type": "address[]"
            },
            {
              "internalType": "address[]",
              "name": "delOwners",
              "type": "address[]"
            },
            {
              "internalType": "uint256",
              "name": "approvalsRequired",
              "type": "uint256"
            }
          ],
          "internalType": "struct MultiSigWallet.ConsChangeInfo",
          "name": "",
          "type": "tuple"
        }
      ],
      "stateMutability": "view",
      "type": "function"
    },
    {
      "inputs": [],
      "name": "id",
      "outputs": [
        {
          "internalType": "uint256",
          "name": "",
          "type": "uint256"
        }
      ],
      "stateMutability": "view",
      "type": "function"
    },
    {
      "inputs": [
        {
          "internalType": "uint256",
          "name": "",
          "type": "uint256"
        }
      ],
      "name": "idsInfo",
      "outputs": [
        {
          "internalType": "uint256",
          "name": "id",
          "type": "uint256"
        },
        {
          "internalType": "enum MultiSigWallet.State",
          "name": "state",
          "type": "uint8"
        },
        {
          "internalType": "enum MultiSigWallet.IdType",
          "name": "idType",
          "type": "uint8"
        },
        {
          "internalType": "uint256",
          "name": "totalApproval",
          "type": "uint256"
        },
        {
          "internalType": "uint256",
          "name": "totalReject",
          "type": "uint256"
        }
      ],
      "stateMutability": "view",
      "type": "function"
    },
    {
      "inputs": [],
      "name": "isConsChanging",
      "outputs": [
        {
          "internalType": "bool",
          "name": "",
          "type": "bool"
        }
      ],
      "stateMutability": "view",
      "type": "function"
    },
    {
      "inputs": [
        {
          "internalType": "address",
          "name": "",
          "type": "address"
        }
      ],
      "name": "isOwner",
      "outputs": [
        {
          "internalType": "bool",
          "name": "",
          "type": "bool"
        }
      ],
      "stateMutability": "view",
      "type": "function"
    },
    {
      "inputs": [],
      "name": "transAmount",
      "outputs": [
        {
          "internalType": "uint256",
          "name": "",
          "type": "uint256"
        }
      ],
      "stateMutability": "view",
      "type": "function"
    },
    {
      "inputs": [
        {
          "internalType": "uint256",
          "name": "",
          "type": "uint256"
        }
      ],
      "name": "transactions",
      "outputs": [
        {
          "internalType": "address",
          "name": "to",
          "type": "address"
        },
        {
          "internalType": "uint256",
          "name": "amount",
          "type": "uint256"
        }
      ],
      "stateMutability": "view",
      "type": "function"
    },
    {
      "inputs": [
        {
          "internalType": "uint256",
          "name": "_id",
          "type": "uint256"
        },
        {
          "internalType": "bool",
          "name": "_vote",
          "type": "bool"
        }
      ],
      "name": "vote",
      "outputs": [],
      "stateMutability": "nonpayable",
      "type": "function"
    },
    {
      "inputs": [
        {
          "internalType": "uint256",
          "name": "",
          "type": "uint256"
        },
        {
          "internalType": "address",
          "name": "",
          "type": "address"
        }
      ],
      "name": "voted",
      "outputs": [
        {
          "internalType": "bool",
          "name": "",
          "type": "bool"
        }
      ],
      "stateMutability": "view",
      "type": "function"
    },
    {
      "stateMutability": "payable",
      "type": "receive"
    }
  ],
  "bytecode": "0x60806040523480156200001157600080fd5b5060405162002eca38038062002eca83398181016040528101906200003791906200046d565b6000835190506000811162000083576040517f08c379a00000000000000000000000000000000000000000000000000000000081526004016200007a9062000549565b60405180910390fd5b600083118015620000945750808311155b620000d6576040517f08c379a0000000000000000000000000000000000000000000000000000000008152600401620000cd90620005e1565b60405180910390fd5b60005b81811015620001e5576000858281518110620000fa57620000f962000603565b5b60200260200101519050600073ffffffffffffffffffffffffffffffffffffffff168173ffffffffffffffffffffffffffffffffffffffff160362000176576040517f08c379a00000000000000000000000000000000000000000000000000000000081526004016200016d9062000682565b60405180910390fd5b6001600260008373ffffffffffffffffffffffffffffffffffffffff1673ffffffffffffffffffffffffffffffffffffffff16815260200190815260200160002060006101000a81548160ff021916908315150217905550508080620001dc90620006d3565b915050620000d9565b508060076000018190555082600760010181905550816000806101000a81548173ffffffffffffffffffffffffffffffffffffffff021916908373ffffffffffffffffffffffffffffffffffffffff1602179055505050505062000720565b6000604051905090565b600080fd5b600080fd5b600080fd5b6000601f19601f8301169050919050565b7f4e487b7100000000000000000000000000000000000000000000000000000000600052604160045260246000fd5b620002a8826200025d565b810181811067ffffffffffffffff82111715620002ca57620002c96200026e565b5b80604052505050565b6000620002df62000244565b9050620002ed82826200029d565b919050565b600067ffffffffffffffff82111562000310576200030f6200026e565b5b602082029050602081019050919050565b600080fd5b600073ffffffffffffffffffffffffffffffffffffffff82169050919050565b6000620003538262000326565b9050919050565b620003658162000346565b81146200037157600080fd5b50565b60008151905062000385816200035a565b92915050565b6000620003a26200039c84620002f2565b620002d3565b90508083825260208201905060208402830185811115620003c857620003c762000321565b5b835b81811015620003f55780620003e0888262000374565b845260208401935050602081019050620003ca565b5050509392505050565b600082601f83011262000417576200041662000258565b5b8151620004298482602086016200038b565b91505092915050565b6000819050919050565b620004478162000432565b81146200045357600080fd5b50565b60008151905062000467816200043c565b92915050565b6000806000606084860312156200048957620004886200024e565b5b600084015167ffffffffffffffff811115620004aa57620004a962000253565b5b620004b886828701620003ff565b9350506020620004cb8682870162000456565b9250506040620004de8682870162000374565b9150509250925092565b600082825260208201905092915050565b7f6f776e6572732072657175697265640000000000000000000000000000000000600082015250565b600062000531600f83620004e8565b91506200053e82620004f9565b602082019050919050565b60006020820190508181036000830152620005648162000522565b9050919050565b7f696e76616c6964207265717569726564206e756d626572206f66206f776e657260008201527f7300000000000000000000000000000000000000000000000000000000000000602082015250565b6000620005c9602183620004e8565b9150620005d6826200056b565b604082019050919050565b60006020820190508181036000830152620005fc81620005ba565b9050919050565b7f4e487b7100000000000000000000000000000000000000000000000000000000600052603260045260246000fd5b7f696e76616c696420616464726573730000000000000000000000000000000000600082015250565b60006200066a600f83620004e8565b9150620006778262000632565b602082019050919050565b600060208201905081810360008301526200069d816200065b565b9050919050565b7f4e487b7100000000000000000000000000000000000000000000000000000000600052601160045260246000fd5b6000620006e08262000432565b91507fffffffffffffffffffffffffffffffffffffffffffffffffffffffffffffffff8203620007155762000714620006a4565b5b600182019050919050565b61279a80620007306000396000f3fe6080604052600436106100ab5760003560e01c80638ef3f761116100645780638ef3f761146102275780639ace38c214610253578063af640d0f14610291578063b483cec3146102bc578063c9d27afe146102fd578063f253dd1f1461032657610100565b806305e3d17d1461010557806328b2b3b0146101305780632f54bf6e1461015b5780635277b4ae146101985780636dbf108f146101d557806388535ae5146101fe57610100565b36610100573373ffffffffffffffffffffffffffffffffffffffff167fe1fffcc4923d04b559f4d29a8bfc6cda04eb5b0d3c460751c2402c5c5cc9109c346040516100f69190611a48565b60405180910390a2005b600080fd5b34801561011157600080fd5b5061011a610351565b6040516101279190611bb9565b60405180910390f35b34801561013c57600080fd5b50610145610491565b6040516101529190611a48565b60405180910390f35b34801561016757600080fd5b50610182600480360381019061017d9190611c11565b610497565b60405161018f9190611c59565b60405180910390f35b3480156101a457600080fd5b506101bf60048036038101906101ba9190611ca0565b6104b7565b6040516101cc9190611c59565b60405180910390f35b3480156101e157600080fd5b506101fc60048036038101906101f79190611d45565b6104e6565b005b34801561020a57600080fd5b5061022560048036038101906102209190611dda565b61097c565b005b34801561023357600080fd5b5061023c610bce565b60405161024a929190611e1a565b60405180910390f35b34801561025f57600080fd5b5061027a60048036038101906102759190611e43565b610be0565b604051610288929190611e7f565b60405180910390f35b34801561029d57600080fd5b506102a6610c24565b6040516102b39190611a48565b60405180910390f35b3480156102c857600080fd5b506102e360048036038101906102de9190611e43565b610c2a565b6040516102f4959493929190611f67565b60405180910390f35b34801561030957600080fd5b50610324600480360381019061031f9190611fe6565b610c7a565b005b34801561033257600080fd5b5061033b610fe8565b6040516103489190611c59565b60405180910390f35b610359611930565b6009604051806060016040529081600082018054806020026020016040519081016040528092919081815260200182805480156103eb57602002820191906000526020600020905b8160009054906101000a900473ffffffffffffffffffffffffffffffffffffffff1673ffffffffffffffffffffffffffffffffffffffff16815260200190600101908083116103a1575b505050505081526020016001820180548060200260200160405190810160405280929190818152602001828054801561047957602002820191906000526020600020905b8160009054906101000a900473ffffffffffffffffffffffffffffffffffffffff1673ffffffffffffffffffffffffffffffffffffffff168152602001906001019080831161042f575b50505050508152602001600282015481525050905090565b60065481565b60026020528060005260406000206000915054906101000a900460ff1681565b60046020528160005260406000206020528060005260406000206000915091509054906101000a900460ff1681565b600260003373ffffffffffffffffffffffffffffffffffffffff1673ffffffffffffffffffffffffffffffffffffffff16815260200190815260200160002060009054906101000a900460ff16610572576040517f08c379a000000000000000000000000000000000000000000000000000000000815260040161056990612083565b60405180910390fd5b6000600654146105b7576040517f08c379a00000000000000000000000000000000000000000000000000000000081526004016105ae906120ef565b60405180910390fd5b6000858590509050600084849050905080826007600001546105d9919061213e565b11610619576040517f08c379a0000000000000000000000000000000000000000000000000000000008152600401610610906121be565b60405180910390fd5b600083111561068b578082600760000154610634919061213e565b61063e91906121de565b831115610680576040517f08c379a000000000000000000000000000000000000000000000000000000000815260040161067790612284565b60405180910390fd5b826009600201819055505b60008787905011156107f55760005b828110156107de5760008888838181106106b7576106b66122a4565b5b90506020020160208101906106cc9190611c11565b9050600073ffffffffffffffffffffffffffffffffffffffff168173ffffffffffffffffffffffffffffffffffffffff160361073d576040517f08c379a00000000000000000000000000000000000000000000000000000000081526004016107349061231f565b60405180910390fd5b600260008273ffffffffffffffffffffffffffffffffffffffff1673ffffffffffffffffffffffffffffffffffffffff16815260200190815260200160002060009054906101000a900460ff16156107ca576040517f08c379a00000000000000000000000000000000000000000000000000000000081526004016107c19061238b565b60405180910390fd5b5080806107d6906123ab565b91505061069a565b508686600960000191906107f3929190611951565b505b60008585905011156108ef5760005b818110156108d8576000868683818110610821576108206122a4565b5b90506020020160208101906108369190611c11565b9050600260008273ffffffffffffffffffffffffffffffffffffffff1673ffffffffffffffffffffffffffffffffffffffff16815260200190815260200160002060009054906101000a900460ff166108c4576040517f08c379a00000000000000000000000000000000000000000000000000000000081526004016108bb9061243f565b60405180910390fd5b5080806108d0906123ab565b915050610804565b508484600960010191906108ed929190611951565b505b6001806000828254610901919061213e565b925050819055506001600c60006101000a81548160ff02191690831515021790555061092d6001610ffb565b3373ffffffffffffffffffffffffffffffffffffffff166001547f1645fed76b26a1d1f9e7cf6fa4fd89d9d92297c04977e60e70a775dedb3b6fa960405160405180910390a350505050505050565b600260003373ffffffffffffffffffffffffffffffffffffffff1673ffffffffffffffffffffffffffffffffffffffff16815260200190815260200160002060009054906101000a900460ff16610a08576040517f08c379a00000000000000000000000000000000000000000000000000000000081526004016109ff90612083565b60405180910390fd5b600c60009054906101000a900460ff1615610a58576040517f08c379a0000000000000000000000000000000000000000000000000000000008152600401610a4f906124ab565b60405180910390fd5b80600654610a66919061213e565b4711610aa7576040517f08c379a0000000000000000000000000000000000000000000000000000000008152600401610a9e90612517565b60405180910390fd5b6001806000828254610ab9919061213e565b9250508190555060405180604001604052808373ffffffffffffffffffffffffffffffffffffffff1681526020018281525060056000600154815260200190815260200160002060008201518160000160006101000a81548173ffffffffffffffffffffffffffffffffffffffff021916908373ffffffffffffffffffffffffffffffffffffffff160217905550602082015181600101559050508060066000828254610b66919061213e565b92505081905550610b776000610ffb565b3373ffffffffffffffffffffffffffffffffffffffff166001547fd31912e66166ba49f6bfd01a2768e3722718398c4c7079d715d8f3420d00697c8484604051610bc2929190611e7f565b60405180910390a35050565b60078060000154908060010154905082565b60056020528060005260406000206000915090508060000160009054906101000a900473ffffffffffffffffffffffffffffffffffffffff16908060010154905082565b60015481565b60036020528060005260406000206000915090508060000154908060010160009054906101000a900460ff16908060010160019054906101000a900460ff16908060020154908060030154905085565b600260003373ffffffffffffffffffffffffffffffffffffffff1673ffffffffffffffffffffffffffffffffffffffff16815260200190815260200160002060009054906101000a900460ff16610d06576040517f08c379a0000000000000000000000000000000000000000000000000000000008152600401610cfd90612083565b60405180910390fd5b81600154811115610d4c576040517f08c379a0000000000000000000000000000000000000000000000000000000008152600401610d4390612583565b60405180910390fd5b826004600082815260200190815260200160002060003373ffffffffffffffffffffffffffffffffffffffff1673ffffffffffffffffffffffffffffffffffffffff16815260200190815260200160002060009054906101000a900460ff1615610deb576040517f08c379a0000000000000000000000000000000000000000000000000000000008152600401610de2906125ef565b60405180910390fd5b8360006002811115610e0057610dff611ea8565b5b6003600083815260200190815260200160002060010160009054906101000a900460ff166002811115610e3657610e35611ea8565b5b14610e76576040517f08c379a0000000000000000000000000000000000000000000000000000000008152600401610e6d9061265b565b60405180910390fd5b60016004600087815260200190815260200160002060003373ffffffffffffffffffffffffffffffffffffffff1673ffffffffffffffffffffffffffffffffffffffff16815260200190815260200160002060006101000a81548160ff0219169083151502179055503373ffffffffffffffffffffffffffffffffffffffff16857ff2913dbe661ee2acc4a046d8fbcdc792373bda34c41c6086484b5345e5785e5f86604051610f269190611c59565b60405180910390a360006003600087815260200190815260200160002090508415610f6c576001816002016000828254610f60919061213e565b92505081905550610f89565b6001816003016000828254610f81919061213e565b925050819055505b60006001811115610f9d57610f9c611ea8565b5b8160010160019054906101000a900460ff166001811115610fc157610fc0611ea8565b5b03610fd557610fd0868261114f565b610fe0565b610fdf86826113f7565b5b505050505050565b600c60009054906101000a900460ff1681565b600160046000600154815260200190815260200160002060003373ffffffffffffffffffffffffffffffffffffffff1673ffffffffffffffffffffffffffffffffffffffff16815260200190815260200160002060006101000a81548160ff0219169083151502179055506040518060a0016040528060015481526020016000600281111561108d5761108c611ea8565b5b81526020018260018111156110a5576110a4611ea8565b5b81526020016001815260200160008152506003600060015481526020019081526020016000206000820151816000015560208201518160010160006101000a81548160ff02191690836002811115611100576110ff611ea8565b5b021790555060408201518160010160016101000a81548160ff021916908360018111156111305761112f611ea8565b5b0217905550606082015181600201556080820151816003015590505050565b6000600560008481526020019081526020016000206040518060400160405290816000820160009054906101000a900473ffffffffffffffffffffffffffffffffffffffff1673ffffffffffffffffffffffffffffffffffffffff1673ffffffffffffffffffffffffffffffffffffffff16815260200160018201548152505090506007600101546007600001546111e791906121de565b8260030154111561126e5760028260010160006101000a81548160ff0219169083600281111561121a57611219611ea8565b5b021790555080602001516006600082825461123591906121de565b92505081905550827f123de41493f6e442c2fdb676dd1c3d9f1e0a7b7531ca0cdb9f1026f7569e2bff60405160405180910390a26113f2565b6007600101548260020154106113f157806020015147116112c4576040517f08c379a00000000000000000000000000000000000000000000000000000000081526004016112bb90612517565b60405180910390fd5b6000816000015173ffffffffffffffffffffffffffffffffffffffff1682602001516040516112f2906126ac565b60006040518083038185875af1925050503d806000811461132f576040519150601f19603f3d011682016040523d82523d6000602084013e611334565b606091505b5050905080611378576040517f08c379a000000000000000000000000000000000000000000000000000000000815260040161136f9061270d565b60405180910390fd5b60018360010160006101000a81548160ff021916908360028111156113a05761139f611ea8565b5b02179055508160200151600660008282546113bb91906121de565b92505081905550837f36d4ea4d2a836eb91a99a36614ff84d373648ee61d232da708aa2eb96ef45c5860405160405180910390a2505b5b505050565b60076001015460076000015461140d91906121de565b816003015411156114bf5760096000808201600061142b91906119f1565b60018201600061143b91906119f1565b6002820160009055505060028160010160006101000a81548160ff0219169083600281111561146d5761146c611ea8565b5b02179055506000600c60006101000a81548160ff021916908315150217905550817f123de41493f6e442c2fdb676dd1c3d9f1e0a7b7531ca0cdb9f1026f7569e2bff60405160405180910390a261192c565b60076001015481600201541061192b576000600960000180548060200260200160405190810160405280929190818152602001828054801561155657602002820191906000526020600020905b8160009054906101000a900473ffffffffffffffffffffffffffffffffffffffff1673ffffffffffffffffffffffffffffffffffffffff168152602001906001019080831161150c575b50505050509050600081519050600060096001018054806020026020016040519081016040528092919081815260200182805480156115ea57602002820191906000526020600020905b8160009054906101000a900473ffffffffffffffffffffffffffffffffffffffff1673ffffffffffffffffffffffffffffffffffffffff16815260200190600101908083116115a0575b505050505090506000815190506000600960020154905060008060009054906101000a900473ffffffffffffffffffffffffffffffffffffffff16905060008511156117385760005b858110156117365760008782815181106116505761164f6122a4565b5b602002602001015190506001600260008373ffffffffffffffffffffffffffffffffffffffff1673ffffffffffffffffffffffffffffffffffffffff16815260200190815260200160002060006101000a81548160ff0219169083151502179055508273ffffffffffffffffffffffffffffffffffffffff16637abbc537823060016040518463ffffffff1660e01b81526004016116f09392919061272d565b600060405180830381600087803b15801561170a57600080fd5b505af115801561171e573d6000803e3d6000fd5b5050505050808061172e906123ab565b915050611633565b505b60008311156118495760005b83811015611847576000858281518110611761576117606122a4565b5b602002602001015190506000600260008373ffffffffffffffffffffffffffffffffffffffff1673ffffffffffffffffffffffffffffffffffffffff16815260200190815260200160002060006101000a81548160ff0219169083151502179055508273ffffffffffffffffffffffffffffffffffffffff16637abbc537823060006040518463ffffffff1660e01b81526004016118019392919061272d565b600060405180830381600087803b15801561181b57600080fd5b505af115801561182f573d6000803e3d6000fd5b5050505050808061183f906123ab565b915050611744565b505b828560076000015461185b919061213e565b61186591906121de565b600760000181905550600082111561188257816007600101819055505b60096000808201600061189591906119f1565b6001820160006118a591906119f1565b6002820160009055505060018760010160006101000a81548160ff021916908360028111156118d7576118d6611ea8565b5b02179055506000600c60006101000a81548160ff021916908315150217905550877f36d4ea4d2a836eb91a99a36614ff84d373648ee61d232da708aa2eb96ef45c5860405160405180910390a25050505050505b5b5050565b60405180606001604052806060815260200160608152602001600081525090565b8280548282559060005260206000209081019282156119e0579160200282015b828111156119df57823573ffffffffffffffffffffffffffffffffffffffff168260006101000a81548173ffffffffffffffffffffffffffffffffffffffff021916908373ffffffffffffffffffffffffffffffffffffffff16021790555091602001919060010190611971565b5b5090506119ed9190611a12565b5090565b5080546000825590600052602060002090810190611a0f9190611a12565b50565b5b80821115611a2b576000816000905550600101611a13565b5090565b6000819050919050565b611a4281611a2f565b82525050565b6000602082019050611a5d6000830184611a39565b92915050565b600081519050919050565b600082825260208201905092915050565b6000819050602082019050919050565b600073ffffffffffffffffffffffffffffffffffffffff82169050919050565b6000611aba82611a8f565b9050919050565b611aca81611aaf565b82525050565b6000611adc8383611ac1565b60208301905092915050565b6000602082019050919050565b6000611b0082611a63565b611b0a8185611a6e565b9350611b1583611a7f565b8060005b83811015611b46578151611b2d8882611ad0565b9750611b3883611ae8565b925050600181019050611b19565b5085935050505092915050565b611b5c81611a2f565b82525050565b60006060830160008301518482036000860152611b7f8282611af5565b91505060208301518482036020860152611b998282611af5565b9150506040830151611bae6040860182611b53565b508091505092915050565b60006020820190508181036000830152611bd38184611b62565b905092915050565b600080fd5b600080fd5b611bee81611aaf565b8114611bf957600080fd5b50565b600081359050611c0b81611be5565b92915050565b600060208284031215611c2757611c26611bdb565b5b6000611c3584828501611bfc565b91505092915050565b60008115159050919050565b611c5381611c3e565b82525050565b6000602082019050611c6e6000830184611c4a565b92915050565b611c7d81611a2f565b8114611c8857600080fd5b50565b600081359050611c9a81611c74565b92915050565b60008060408385031215611cb757611cb6611bdb565b5b6000611cc585828601611c8b565b9250506020611cd685828601611bfc565b9150509250929050565b600080fd5b600080fd5b600080fd5b60008083601f840112611d0557611d04611ce0565b5b8235905067ffffffffffffffff811115611d2257611d21611ce5565b5b602083019150836020820283011115611d3e57611d3d611cea565b5b9250929050565b600080600080600060608688031215611d6157611d60611bdb565b5b600086013567ffffffffffffffff811115611d7f57611d7e611be0565b5b611d8b88828901611cef565b9550955050602086013567ffffffffffffffff811115611dae57611dad611be0565b5b611dba88828901611cef565b93509350506040611dcd88828901611c8b565b9150509295509295909350565b60008060408385031215611df157611df0611bdb565b5b6000611dff85828601611bfc565b9250506020611e1085828601611c8b565b9150509250929050565b6000604082019050611e2f6000830185611a39565b611e3c6020830184611a39565b9392505050565b600060208284031215611e5957611e58611bdb565b5b6000611e6784828501611c8b565b91505092915050565b611e7981611aaf565b82525050565b6000604082019050611e946000830185611e70565b611ea16020830184611a39565b9392505050565b7f4e487b7100000000000000000000000000000000000000000000000000000000600052602160045260246000fd5b60038110611ee857611ee7611ea8565b5b50565b6000819050611ef982611ed7565b919050565b6000611f0982611eeb565b9050919050565b611f1981611efe565b82525050565b60028110611f3057611f2f611ea8565b5b50565b6000819050611f4182611f1f565b919050565b6000611f5182611f33565b9050919050565b611f6181611f46565b82525050565b600060a082019050611f7c6000830188611a39565b611f896020830187611f10565b611f966040830186611f58565b611fa36060830185611a39565b611fb06080830184611a39565b9695505050505050565b611fc381611c3e565b8114611fce57600080fd5b50565b600081359050611fe081611fba565b92915050565b60008060408385031215611ffd57611ffc611bdb565b5b600061200b85828601611c8b565b925050602061201c85828601611fd1565b9150509250929050565b600082825260208201905092915050565b7f4e6f74206f776e65720000000000000000000000000000000000000000000000600082015250565b600061206d600983612026565b915061207882612037565b602082019050919050565b6000602082019050818103600083015261209c81612060565b9050919050565b7f7472616e73616374696f6e2070656e64696e6700000000000000000000000000600082015250565b60006120d9601383612026565b91506120e4826120a3565b602082019050919050565b60006020820190508181036000830152612108816120cc565b9050919050565b7f4e487b7100000000000000000000000000000000000000000000000000000000600052601160045260246000fd5b600061214982611a2f565b915061215483611a2f565b925082820190508082111561216c5761216b61210f565b5b92915050565b7f4e6f742064656c65746520616c6c207573657200000000000000000000000000600082015250565b60006121a8601383612026565b91506121b382612172565b602082019050919050565b600060208201905081810360008301526121d78161219b565b9050919050565b60006121e982611a2f565b91506121f483611a2f565b925082820390508181111561220c5761220b61210f565b5b92915050565b7f696e76616c6964207265717569726564206e756d626572206f66206f776e657260008201527f7300000000000000000000000000000000000000000000000000000000000000602082015250565b600061226e602183612026565b915061227982612212565b604082019050919050565b6000602082019050818103600083015261229d81612261565b9050919050565b7f4e487b7100000000000000000000000000000000000000000000000000000000600052603260045260246000fd5b7f696e76616c696420616464726573730000000000000000000000000000000000600082015250565b6000612309600f83612026565b9150612314826122d3565b602082019050919050565b60006020820190508181036000830152612338816122fc565b9050919050565b7f6f776e6572206578697374656400000000000000000000000000000000000000600082015250565b6000612375600d83612026565b91506123808261233f565b602082019050919050565b600060208201905081810360008301526123a481612368565b9050919050565b60006123b682611a2f565b91507fffffffffffffffffffffffffffffffffffffffffffffffffffffffffffffffff82036123e8576123e761210f565b5b600182019050919050565b7f6f776e6572206e6f742065786973740000000000000000000000000000000000600082015250565b6000612429600f83612026565b9150612434826123f3565b602082019050919050565b600060208201905081810360008301526124588161241c565b9050919050565b7f436f6e73656e737573206973206368616e67696e670000000000000000000000600082015250565b6000612495601583612026565b91506124a08261245f565b602082019050919050565b600060208201905081810360008301526124c481612488565b9050919050565b7f696e73756666696369656e742062616c616e6365000000000000000000000000600082015250565b6000612501601483612026565b915061250c826124cb565b602082019050919050565b60006020820190508181036000830152612530816124f4565b9050919050565b7f6e6f742065786973742069640000000000000000000000000000000000000000600082015250565b600061256d600c83612026565b915061257882612537565b602082019050919050565b6000602082019050818103600083015261259c81612560565b9050919050565b7f7573657220616c726561647920766f7465642074686973206964000000000000600082015250565b60006125d9601a83612026565b91506125e4826125a3565b602082019050919050565b60006020820190508181036000830152612608816125cc565b9050919050565b7f494420616c7265616479207265736f6c76650000000000000000000000000000600082015250565b6000612645601283612026565b91506126508261260f565b602082019050919050565b6000602082019050818103600083015261267481612638565b9050919050565b600081905092915050565b50565b600061269660008361267b565b91506126a182612686565b600082019050919050565b60006126b782612689565b9150819050919050565b7f7472616e73666572206661696c65640000000000000000000000000000000000600082015250565b60006126f7600f83612026565b9150612702826126c1565b602082019050919050565b60006020820190508181036000830152612726816126ea565b9050919050565b60006060820190506127426000830186611e70565b61274f6020830185611e70565b61275c6040830184611c4a565b94935050505056fea2646970667358221220b2cccc402a4b42dd1a71890d29ca48a80201e0965260ace2d98a8bb0381204e864736f6c63430008110033",
  "linkReferences": {},
  "deployedLinkReferences": {}
}