{
  "_format": "hh-sol-artifact-1",
  "contractName": "MultiSigWallet",
  "sourceName": "contracts/MultiSigWallet.sol",
  "abi": [
    {
      "inputs": [
        {
          "internalType": "address[]",
          "name": "_owners",
          "type": "address[]"
        },
        {
          "internalType": "uint256",
          "name": "_required",
          "type": "uint256"
        },
        {
          "internalType": "address",
          "name": "_multiSigFactory",
          "type": "address"
        }
      ],
      "stateMutability": "nonpayable",
      "type": "constructor"
    },
    {
      "anonymous": false,
      "inputs": [
        {
          "indexed": true,
          "internalType": "uint256",
          "name": "id",
          "type": "uint256"
        },
        {
          "indexed": true,
          "internalType": "address",
          "name": "creator",
          "type": "address"
        }
      ],
      "name": "CreateCons",
      "type": "event"
    },
    {
      "anonymous": false,
      "inputs": [
        {
          "indexed": true,
          "internalType": "uint256",
          "name": "id",
          "type": "uint256"
        },
        {
          "indexed": true,
          "internalType": "address",
          "name": "creator",
          "type": "address"
        },
        {
          "indexed": false,
          "internalType": "address",
          "name": "to",
          "type": "address"
        },
        {
          "indexed": false,
          "internalType": "uint256",
          "name": "amount",
          "type": "uint256"
        }
      ],
      "name": "CreateTrans",
      "type": "event"
    },
    {
      "anonymous": false,
      "inputs": [
        {
          "indexed": true,
          "internalType": "address",
          "name": "sender",
          "type": "address"
        },
        {
          "indexed": false,
          "internalType": "uint256",
          "name": "amount",
          "type": "uint256"
        }
      ],
      "name": "Deposit",
      "type": "event"
    },
    {
      "anonymous": false,
      "inputs": [
        {
          "indexed": true,
          "internalType": "uint256",
          "name": "id",
          "type": "uint256"
        },
        {
          "indexed": false,
          "internalType": "bool",
          "name": "success",
          "type": "bool"
        },
        {
          "indexed": false,
          "internalType": "address[]",
          "name": "addOwners",
          "type": "address[]"
        },
        {
          "indexed": false,
          "internalType": "address[]",
          "name": "delOwners",
          "type": "address[]"
        },
        {
          "indexed": false,
          "internalType": "uint256",
          "name": "approvalsRequired",
          "type": "uint256"
        }
      ],
      "name": "ResolveCons",
      "type": "event"
    },
    {
      "anonymous": false,
      "inputs": [
        {
          "indexed": true,
          "internalType": "uint256",
          "name": "id",
          "type": "uint256"
        },
        {
          "indexed": false,
          "internalType": "bool",
          "name": "success",
          "type": "bool"
        },
        {
          "indexed": false,
          "internalType": "uint256",
          "name": "balance",
          "type": "uint256"
        },
        {
          "indexed": false,
          "internalType": "uint256",
          "name": "balanceLock",
          "type": "uint256"
        }
      ],
      "name": "ResolveTrans",
      "type": "event"
    },
    {
      "anonymous": false,
      "inputs": [
        {
          "indexed": true,
          "internalType": "uint256",
          "name": "id",
          "type": "uint256"
        },
        {
          "indexed": true,
          "internalType": "address",
          "name": "owner",
          "type": "address"
        },
        {
          "indexed": false,
          "internalType": "bool",
          "name": "isApproved",
          "type": "bool"
        }
      ],
      "name": "Voted",
      "type": "event"
    },
    {
      "inputs": [],
      "name": "consensus",
      "outputs": [
        {
          "internalType": "uint256",
          "name": "totalOwner",
          "type": "uint256"
        },
        {
          "internalType": "uint256",
          "name": "approvalsRequired",
          "type": "uint256"
        }
      ],
      "stateMutability": "view",
      "type": "function"
    },
    {
      "inputs": [
        {
          "internalType": "address[]",
          "name": "_addOwners",
          "type": "address[]"
        },
        {
          "internalType": "address[]",
          "name": "_delOwners",
          "type": "address[]"
        },
        {
          "internalType": "uint256",
          "name": "_approvalsRequired",
          "type": "uint256"
        }
      ],
      "name": "createCons",
      "outputs": [],
      "stateMutability": "nonpayable",
      "type": "function"
    },
    {
      "inputs": [
        {
          "internalType": "address",
          "name": "_to",
          "type": "address"
        },
        {
          "internalType": "uint256",
          "name": "_amount",
          "type": "uint256"
        }
      ],
      "name": "createTrans",
      "outputs": [],
      "stateMutability": "nonpayable",
      "type": "function"
    },
    {
      "inputs": [],
      "name": "getConsChangeInfo",
      "outputs": [
        {
          "components": [
            {
              "internalType": "address[]",
              "name": "addOwners",
              "type": "address[]"
            },
            {
              "internalType": "address[]",
              "name": "delOwners",
              "type": "address[]"
            },
            {
              "internalType": "uint256",
              "name": "approvalsRequired",
              "type": "uint256"
            }
          ],
          "internalType": "struct MultiSigWallet.ConsChangeInfo",
          "name": "",
          "type": "tuple"
        }
      ],
      "stateMutability": "view",
      "type": "function"
    },
    {
      "inputs": [],
      "name": "id",
      "outputs": [
        {
          "internalType": "uint256",
          "name": "",
          "type": "uint256"
        }
      ],
      "stateMutability": "view",
      "type": "function"
    },
    {
      "inputs": [
        {
          "internalType": "uint256",
          "name": "",
          "type": "uint256"
        }
      ],
      "name": "idsInfo",
      "outputs": [
        {
          "internalType": "uint256",
          "name": "id",
          "type": "uint256"
        },
        {
          "internalType": "enum MultiSigWallet.State",
          "name": "state",
          "type": "uint8"
        },
        {
          "internalType": "enum MultiSigWallet.IdType",
          "name": "idType",
          "type": "uint8"
        },
        {
          "internalType": "uint256",
          "name": "totalApproval",
          "type": "uint256"
        },
        {
          "internalType": "uint256",
          "name": "totalReject",
          "type": "uint256"
        }
      ],
      "stateMutability": "view",
      "type": "function"
    },
    {
      "inputs": [],
      "name": "isConsChanging",
      "outputs": [
        {
          "internalType": "bool",
          "name": "",
          "type": "bool"
        }
      ],
      "stateMutability": "view",
      "type": "function"
    },
    {
      "inputs": [
        {
          "internalType": "address",
          "name": "",
          "type": "address"
        }
      ],
      "name": "isOwner",
      "outputs": [
        {
          "internalType": "bool",
          "name": "",
          "type": "bool"
        }
      ],
      "stateMutability": "view",
      "type": "function"
    },
    {
      "inputs": [],
      "name": "transAmount",
      "outputs": [
        {
          "internalType": "uint256",
          "name": "",
          "type": "uint256"
        }
      ],
      "stateMutability": "view",
      "type": "function"
    },
    {
      "inputs": [
        {
          "internalType": "uint256",
          "name": "",
          "type": "uint256"
        }
      ],
      "name": "transactions",
      "outputs": [
        {
          "internalType": "address",
          "name": "to",
          "type": "address"
        },
        {
          "internalType": "uint256",
          "name": "amount",
          "type": "uint256"
        }
      ],
      "stateMutability": "view",
      "type": "function"
    },
    {
      "inputs": [
        {
          "internalType": "uint256",
          "name": "_id",
          "type": "uint256"
        },
        {
          "internalType": "bool",
          "name": "_vote",
          "type": "bool"
        }
      ],
      "name": "vote",
      "outputs": [],
      "stateMutability": "nonpayable",
      "type": "function"
    },
    {
      "inputs": [
        {
          "internalType": "uint256",
          "name": "",
          "type": "uint256"
        },
        {
          "internalType": "address",
          "name": "",
          "type": "address"
        }
      ],
      "name": "voted",
      "outputs": [
        {
          "internalType": "bool",
          "name": "",
          "type": "bool"
        }
      ],
      "stateMutability": "view",
      "type": "function"
    },
    {
      "stateMutability": "payable",
      "type": "receive"
    }
  ],
  "bytecode": "0x60806040523480156200001157600080fd5b50604051620030053803806200300583398181016040528101906200003791906200046d565b6000835190506000811162000083576040517f08c379a00000000000000000000000000000000000000000000000000000000081526004016200007a9062000549565b60405180910390fd5b600083118015620000945750808311155b620000d6576040517f08c379a0000000000000000000000000000000000000000000000000000000008152600401620000cd90620005e1565b60405180910390fd5b60005b81811015620001e5576000858281518110620000fa57620000f962000603565b5b60200260200101519050600073ffffffffffffffffffffffffffffffffffffffff168173ffffffffffffffffffffffffffffffffffffffff160362000176576040517f08c379a00000000000000000000000000000000000000000000000000000000081526004016200016d9062000682565b60405180910390fd5b6001600260008373ffffffffffffffffffffffffffffffffffffffff1673ffffffffffffffffffffffffffffffffffffffff16815260200190815260200160002060006101000a81548160ff021916908315150217905550508080620001dc90620006d3565b915050620000d9565b508060076000018190555082600760010181905550816000806101000a81548173ffffffffffffffffffffffffffffffffffffffff021916908373ffffffffffffffffffffffffffffffffffffffff1602179055505050505062000720565b6000604051905090565b600080fd5b600080fd5b600080fd5b6000601f19601f8301169050919050565b7f4e487b7100000000000000000000000000000000000000000000000000000000600052604160045260246000fd5b620002a8826200025d565b810181811067ffffffffffffffff82111715620002ca57620002c96200026e565b5b80604052505050565b6000620002df62000244565b9050620002ed82826200029d565b919050565b600067ffffffffffffffff82111562000310576200030f6200026e565b5b602082029050602081019050919050565b600080fd5b600073ffffffffffffffffffffffffffffffffffffffff82169050919050565b6000620003538262000326565b9050919050565b620003658162000346565b81146200037157600080fd5b50565b60008151905062000385816200035a565b92915050565b6000620003a26200039c84620002f2565b620002d3565b90508083825260208201905060208402830185811115620003c857620003c762000321565b5b835b81811015620003f55780620003e0888262000374565b845260208401935050602081019050620003ca565b5050509392505050565b600082601f83011262000417576200041662000258565b5b8151620004298482602086016200038b565b91505092915050565b6000819050919050565b620004478162000432565b81146200045357600080fd5b50565b60008151905062000467816200043c565b92915050565b6000806000606084860312156200048957620004886200024e565b5b600084015167ffffffffffffffff811115620004aa57620004a962000253565b5b620004b886828701620003ff565b9350506020620004cb8682870162000456565b9250506040620004de8682870162000374565b9150509250925092565b600082825260208201905092915050565b7f6f776e6572732072657175697265640000000000000000000000000000000000600082015250565b600062000531600f83620004e8565b91506200053e82620004f9565b602082019050919050565b60006020820190508181036000830152620005648162000522565b9050919050565b7f696e76616c6964207265717569726564206e756d626572206f66206f776e657260008201527f7300000000000000000000000000000000000000000000000000000000000000602082015250565b6000620005c9602183620004e8565b9150620005d6826200056b565b604082019050919050565b60006020820190508181036000830152620005fc81620005ba565b9050919050565b7f4e487b7100000000000000000000000000000000000000000000000000000000600052603260045260246000fd5b7f696e76616c696420616464726573730000000000000000000000000000000000600082015250565b60006200066a600f83620004e8565b9150620006778262000632565b602082019050919050565b600060208201905081810360008301526200069d816200065b565b9050919050565b7f4e487b7100000000000000000000000000000000000000000000000000000000600052601160045260246000fd5b6000620006e08262000432565b91507fffffffffffffffffffffffffffffffffffffffffffffffffffffffffffffffff8203620007155762000714620006a4565b5b600182019050919050565b6128d580620007306000396000f3fe6080604052600436106100ab5760003560e01c80638ef3f761116100645780638ef3f761146102275780639ace38c214610253578063af640d0f14610291578063b483cec3146102bc578063c9d27afe146102fd578063f253dd1f1461032657610100565b806305e3d17d1461010557806328b2b3b0146101305780632f54bf6e1461015b5780635277b4ae146101985780636dbf108f146101d557806388535ae5146101fe57610100565b36610100573373ffffffffffffffffffffffffffffffffffffffff167fe1fffcc4923d04b559f4d29a8bfc6cda04eb5b0d3c460751c2402c5c5cc9109c346040516100f69190611a8a565b60405180910390a2005b600080fd5b34801561011157600080fd5b5061011a610351565b6040516101279190611bfb565b60405180910390f35b34801561013c57600080fd5b50610145610491565b6040516101529190611a8a565b60405180910390f35b34801561016757600080fd5b50610182600480360381019061017d9190611c53565b610497565b60405161018f9190611c9b565b60405180910390f35b3480156101a457600080fd5b506101bf60048036038101906101ba9190611ce2565b6104b7565b6040516101cc9190611c9b565b60405180910390f35b3480156101e157600080fd5b506101fc60048036038101906101f79190611d87565b6104e6565b005b34801561020a57600080fd5b5061022560048036038101906102209190611e1c565b61097c565b005b34801561023357600080fd5b5061023c610bce565b60405161024a929190611e5c565b60405180910390f35b34801561025f57600080fd5b5061027a60048036038101906102759190611e85565b610be0565b604051610288929190611ec1565b60405180910390f35b34801561029d57600080fd5b506102a6610c24565b6040516102b39190611a8a565b60405180910390f35b3480156102c857600080fd5b506102e360048036038101906102de9190611e85565b610c2a565b6040516102f4959493929190611fa9565b60405180910390f35b34801561030957600080fd5b50610324600480360381019061031f9190612028565b610c7a565b005b34801561033257600080fd5b5061033b610fe8565b6040516103489190611c9b565b60405180910390f35b610359611972565b6009604051806060016040529081600082018054806020026020016040519081016040528092919081815260200182805480156103eb57602002820191906000526020600020905b8160009054906101000a900473ffffffffffffffffffffffffffffffffffffffff1673ffffffffffffffffffffffffffffffffffffffff16815260200190600101908083116103a1575b505050505081526020016001820180548060200260200160405190810160405280929190818152602001828054801561047957602002820191906000526020600020905b8160009054906101000a900473ffffffffffffffffffffffffffffffffffffffff1673ffffffffffffffffffffffffffffffffffffffff168152602001906001019080831161042f575b50505050508152602001600282015481525050905090565b60065481565b60026020528060005260406000206000915054906101000a900460ff1681565b60046020528160005260406000206020528060005260406000206000915091509054906101000a900460ff1681565b600260003373ffffffffffffffffffffffffffffffffffffffff1673ffffffffffffffffffffffffffffffffffffffff16815260200190815260200160002060009054906101000a900460ff16610572576040517f08c379a0000000000000000000000000000000000000000000000000000000008152600401610569906120c5565b60405180910390fd5b6000600654146105b7576040517f08c379a00000000000000000000000000000000000000000000000000000000081526004016105ae90612131565b60405180910390fd5b6000858590509050600084849050905080826007600001546105d99190612180565b11610619576040517f08c379a000000000000000000000000000000000000000000000000000000000815260040161061090612200565b60405180910390fd5b600083111561068b5780826007600001546106349190612180565b61063e9190612220565b831115610680576040517f08c379a0000000000000000000000000000000000000000000000000000000008152600401610677906122c6565b60405180910390fd5b826009600201819055505b60008787905011156107f55760005b828110156107de5760008888838181106106b7576106b66122e6565b5b90506020020160208101906106cc9190611c53565b9050600073ffffffffffffffffffffffffffffffffffffffff168173ffffffffffffffffffffffffffffffffffffffff160361073d576040517f08c379a000000000000000000000000000000000000000000000000000000000815260040161073490612361565b60405180910390fd5b600260008273ffffffffffffffffffffffffffffffffffffffff1673ffffffffffffffffffffffffffffffffffffffff16815260200190815260200160002060009054906101000a900460ff16156107ca576040517f08c379a00000000000000000000000000000000000000000000000000000000081526004016107c1906123cd565b60405180910390fd5b5080806107d6906123ed565b91505061069a565b508686600960000191906107f3929190611993565b505b60008585905011156108ef5760005b818110156108d8576000868683818110610821576108206122e6565b5b90506020020160208101906108369190611c53565b9050600260008273ffffffffffffffffffffffffffffffffffffffff1673ffffffffffffffffffffffffffffffffffffffff16815260200190815260200160002060009054906101000a900460ff166108c4576040517f08c379a00000000000000000000000000000000000000000000000000000000081526004016108bb90612481565b60405180910390fd5b5080806108d0906123ed565b915050610804565b508484600960010191906108ed929190611993565b505b60018060008282546109019190612180565b925050819055506001600c60006101000a81548160ff02191690831515021790555061092d6001610ffb565b3373ffffffffffffffffffffffffffffffffffffffff166001547f1645fed76b26a1d1f9e7cf6fa4fd89d9d92297c04977e60e70a775dedb3b6fa960405160405180910390a350505050505050565b600260003373ffffffffffffffffffffffffffffffffffffffff1673ffffffffffffffffffffffffffffffffffffffff16815260200190815260200160002060009054906101000a900460ff16610a08576040517f08c379a00000000000000000000000000000000000000000000000000000000081526004016109ff906120c5565b60405180910390fd5b600c60009054906101000a900460ff1615610a58576040517f08c379a0000000000000000000000000000000000000000000000000000000008152600401610a4f906124ed565b60405180910390fd5b80600654610a669190612180565b4711610aa7576040517f08c379a0000000000000000000000000000000000000000000000000000000008152600401610a9e90612559565b60405180910390fd5b6001806000828254610ab99190612180565b9250508190555060405180604001604052808373ffffffffffffffffffffffffffffffffffffffff1681526020018281525060056000600154815260200190815260200160002060008201518160000160006101000a81548173ffffffffffffffffffffffffffffffffffffffff021916908373ffffffffffffffffffffffffffffffffffffffff160217905550602082015181600101559050508060066000828254610b669190612180565b92505081905550610b776000610ffb565b3373ffffffffffffffffffffffffffffffffffffffff166001547fd31912e66166ba49f6bfd01a2768e3722718398c4c7079d715d8f3420d00697c8484604051610bc2929190611ec1565b60405180910390a35050565b60078060000154908060010154905082565b60056020528060005260406000206000915090508060000160009054906101000a900473ffffffffffffffffffffffffffffffffffffffff16908060010154905082565b60015481565b60036020528060005260406000206000915090508060000154908060010160009054906101000a900460ff16908060010160019054906101000a900460ff16908060020154908060030154905085565b600260003373ffffffffffffffffffffffffffffffffffffffff1673ffffffffffffffffffffffffffffffffffffffff16815260200190815260200160002060009054906101000a900460ff16610d06576040517f08c379a0000000000000000000000000000000000000000000000000000000008152600401610cfd906120c5565b60405180910390fd5b81600154811115610d4c576040517f08c379a0000000000000000000000000000000000000000000000000000000008152600401610d43906125c5565b60405180910390fd5b826004600082815260200190815260200160002060003373ffffffffffffffffffffffffffffffffffffffff1673ffffffffffffffffffffffffffffffffffffffff16815260200190815260200160002060009054906101000a900460ff1615610deb576040517f08c379a0000000000000000000000000000000000000000000000000000000008152600401610de290612631565b60405180910390fd5b8360006002811115610e0057610dff611eea565b5b6003600083815260200190815260200160002060010160009054906101000a900460ff166002811115610e3657610e35611eea565b5b14610e76576040517f08c379a0000000000000000000000000000000000000000000000000000000008152600401610e6d9061269d565b60405180910390fd5b60016004600087815260200190815260200160002060003373ffffffffffffffffffffffffffffffffffffffff1673ffffffffffffffffffffffffffffffffffffffff16815260200190815260200160002060006101000a81548160ff0219169083151502179055503373ffffffffffffffffffffffffffffffffffffffff16857ff2913dbe661ee2acc4a046d8fbcdc792373bda34c41c6086484b5345e5785e5f86604051610f269190611c9b565b60405180910390a360006003600087815260200190815260200160002090508415610f6c576001816002016000828254610f609190612180565b92505081905550610f89565b6001816003016000828254610f819190612180565b925050819055505b60006001811115610f9d57610f9c611eea565b5b8160010160019054906101000a900460ff166001811115610fc157610fc0611eea565b5b03610fd557610fd0868261114f565b610fe0565b610fdf8682611415565b5b505050505050565b600c60009054906101000a900460ff1681565b600160046000600154815260200190815260200160002060003373ffffffffffffffffffffffffffffffffffffffff1673ffffffffffffffffffffffffffffffffffffffff16815260200190815260200160002060006101000a81548160ff0219169083151502179055506040518060a0016040528060015481526020016000600281111561108d5761108c611eea565b5b81526020018260018111156110a5576110a4611eea565b5b81526020016001815260200160008152506003600060015481526020019081526020016000206000820151816000015560208201518160010160006101000a81548160ff02191690836002811115611100576110ff611eea565b5b021790555060408201518160010160016101000a81548160ff021916908360018111156111305761112f611eea565b5b0217905550606082015181600201556080820151816003015590505050565b6000600560008481526020019081526020016000206040518060400160405290816000820160009054906101000a900473ffffffffffffffffffffffffffffffffffffffff1673ffffffffffffffffffffffffffffffffffffffff1673ffffffffffffffffffffffffffffffffffffffff16815260200160018201548152505090506000816020015190506007600101546007600001546111f09190612220565b836003015411156112855760028360010160006101000a81548160ff0219169083600281111561122357611222611eea565b5b0217905550806006600082825461123a9190612220565b92505081905550837f7673dd2567ea2e41adc431b48baebcf5797da4bc244d1b58e6326bf1a25e74e1600047600654604051611278939291906126bd565b60405180910390a261140f565b60076001015483600201541061140e578047116112d7576040517f08c379a00000000000000000000000000000000000000000000000000000000081526004016112ce90612559565b60405180910390fd5b6000826000015173ffffffffffffffffffffffffffffffffffffffff168260405161130190612725565b60006040518083038185875af1925050503d806000811461133e576040519150601f19603f3d011682016040523d82523d6000602084013e611343565b606091505b5050905080611387576040517f08c379a000000000000000000000000000000000000000000000000000000000815260040161137e90612786565b60405180910390fd5b60018460010160006101000a81548160ff021916908360028111156113af576113ae611eea565b5b021790555081600660008282546113c69190612220565b92505081905550847f7673dd2567ea2e41adc431b48baebcf5797da4bc244d1b58e6326bf1a25e74e1600147600654604051611404939291906126bd565b60405180910390a2505b5b50505050565b6000600960000180548060200260200160405190810160405280929190818152602001828054801561149c57602002820191906000526020600020905b8160009054906101000a900473ffffffffffffffffffffffffffffffffffffffff1673ffffffffffffffffffffffffffffffffffffffff1681526020019060010190808311611452575b505050505090506000600960010180548060200260200160405190810160405280929190818152602001828054801561152a57602002820191906000526020600020905b8160009054906101000a900473ffffffffffffffffffffffffffffffffffffffff1673ffffffffffffffffffffffffffffffffffffffff16815260200190600101908083116114e0575b50505050509050600060096002015490506007600101546007600001546115519190612220565b846003015411156116155760096000808201600061156f9190611a33565b60018201600061157f9190611a33565b6002820160009055505060028460010160006101000a81548160ff021916908360028111156115b1576115b0611eea565b5b02179055506000600c60006101000a81548160ff021916908315150217905550847f7d89020d60045459615e4a5054cb2c9043fa54c7485dd462648ad05427c2dcd160008585856040516116089493929190612815565b60405180910390a261196b565b60076001015484600201541061196a5760008351905060008351905060008060009054906101000a900473ffffffffffffffffffffffffffffffffffffffff16905060008311156117685760005b838110156117665760008782815181106116805761167f6122e6565b5b602002602001015190506001600260008373ffffffffffffffffffffffffffffffffffffffff1673ffffffffffffffffffffffffffffffffffffffff16815260200190815260200160002060006101000a81548160ff0219169083151502179055508273ffffffffffffffffffffffffffffffffffffffff16637abbc537823060016040518463ffffffff1660e01b815260040161172093929190612868565b600060405180830381600087803b15801561173a57600080fd5b505af115801561174e573d6000803e3d6000fd5b5050505050808061175e906123ed565b915050611663565b505b60008211156118795760005b82811015611877576000868281518110611791576117906122e6565b5b602002602001015190506000600260008373ffffffffffffffffffffffffffffffffffffffff1673ffffffffffffffffffffffffffffffffffffffff16815260200190815260200160002060006101000a81548160ff0219169083151502179055508273ffffffffffffffffffffffffffffffffffffffff16637abbc537823060006040518463ffffffff1660e01b815260040161183193929190612868565b600060405180830381600087803b15801561184b57600080fd5b505af115801561185f573d6000803e3d6000fd5b5050505050808061186f906123ed565b915050611774565b505b818360076000015461188b9190612180565b6118959190612220565b60076000018190555060008411156118b257836007600101819055505b60018760010160006101000a81548160ff021916908360028111156118da576118d9611eea565b5b02179055506000600c60006101000a81548160ff021916908315150217905550877f7d89020d60045459615e4a5054cb2c9043fa54c7485dd462648ad05427c2dcd160018888886040516119319493929190612815565b60405180910390a260096000808201600061194c9190611a33565b60018201600061195c9190611a33565b600282016000905550505050505b5b5050505050565b60405180606001604052806060815260200160608152602001600081525090565b828054828255906000526020600020908101928215611a22579160200282015b82811115611a2157823573ffffffffffffffffffffffffffffffffffffffff168260006101000a81548173ffffffffffffffffffffffffffffffffffffffff021916908373ffffffffffffffffffffffffffffffffffffffff160217905550916020019190600101906119b3565b5b509050611a2f9190611a54565b5090565b5080546000825590600052602060002090810190611a519190611a54565b50565b5b80821115611a6d576000816000905550600101611a55565b5090565b6000819050919050565b611a8481611a71565b82525050565b6000602082019050611a9f6000830184611a7b565b92915050565b600081519050919050565b600082825260208201905092915050565b6000819050602082019050919050565b600073ffffffffffffffffffffffffffffffffffffffff82169050919050565b6000611afc82611ad1565b9050919050565b611b0c81611af1565b82525050565b6000611b1e8383611b03565b60208301905092915050565b6000602082019050919050565b6000611b4282611aa5565b611b4c8185611ab0565b9350611b5783611ac1565b8060005b83811015611b88578151611b6f8882611b12565b9750611b7a83611b2a565b925050600181019050611b5b565b5085935050505092915050565b611b9e81611a71565b82525050565b60006060830160008301518482036000860152611bc18282611b37565b91505060208301518482036020860152611bdb8282611b37565b9150506040830151611bf06040860182611b95565b508091505092915050565b60006020820190508181036000830152611c158184611ba4565b905092915050565b600080fd5b600080fd5b611c3081611af1565b8114611c3b57600080fd5b50565b600081359050611c4d81611c27565b92915050565b600060208284031215611c6957611c68611c1d565b5b6000611c7784828501611c3e565b91505092915050565b60008115159050919050565b611c9581611c80565b82525050565b6000602082019050611cb06000830184611c8c565b92915050565b611cbf81611a71565b8114611cca57600080fd5b50565b600081359050611cdc81611cb6565b92915050565b60008060408385031215611cf957611cf8611c1d565b5b6000611d0785828601611ccd565b9250506020611d1885828601611c3e565b9150509250929050565b600080fd5b600080fd5b600080fd5b60008083601f840112611d4757611d46611d22565b5b8235905067ffffffffffffffff811115611d6457611d63611d27565b5b602083019150836020820283011115611d8057611d7f611d2c565b5b9250929050565b600080600080600060608688031215611da357611da2611c1d565b5b600086013567ffffffffffffffff811115611dc157611dc0611c22565b5b611dcd88828901611d31565b9550955050602086013567ffffffffffffffff811115611df057611def611c22565b5b611dfc88828901611d31565b93509350506040611e0f88828901611ccd565b9150509295509295909350565b60008060408385031215611e3357611e32611c1d565b5b6000611e4185828601611c3e565b9250506020611e5285828601611ccd565b9150509250929050565b6000604082019050611e716000830185611a7b565b611e7e6020830184611a7b565b9392505050565b600060208284031215611e9b57611e9a611c1d565b5b6000611ea984828501611ccd565b91505092915050565b611ebb81611af1565b82525050565b6000604082019050611ed66000830185611eb2565b611ee36020830184611a7b565b9392505050565b7f4e487b7100000000000000000000000000000000000000000000000000000000600052602160045260246000fd5b60038110611f2a57611f29611eea565b5b50565b6000819050611f3b82611f19565b919050565b6000611f4b82611f2d565b9050919050565b611f5b81611f40565b82525050565b60028110611f7257611f71611eea565b5b50565b6000819050611f8382611f61565b919050565b6000611f9382611f75565b9050919050565b611fa381611f88565b82525050565b600060a082019050611fbe6000830188611a7b565b611fcb6020830187611f52565b611fd86040830186611f9a565b611fe56060830185611a7b565b611ff26080830184611a7b565b9695505050505050565b61200581611c80565b811461201057600080fd5b50565b60008135905061202281611ffc565b92915050565b6000806040838503121561203f5761203e611c1d565b5b600061204d85828601611ccd565b925050602061205e85828601612013565b9150509250929050565b600082825260208201905092915050565b7f4e6f74206f776e65720000000000000000000000000000000000000000000000600082015250565b60006120af600983612068565b91506120ba82612079565b602082019050919050565b600060208201905081810360008301526120de816120a2565b9050919050565b7f7472616e73616374696f6e2070656e64696e6700000000000000000000000000600082015250565b600061211b601383612068565b9150612126826120e5565b602082019050919050565b6000602082019050818103600083015261214a8161210e565b9050919050565b7f4e487b7100000000000000000000000000000000000000000000000000000000600052601160045260246000fd5b600061218b82611a71565b915061219683611a71565b92508282019050808211156121ae576121ad612151565b5b92915050565b7f4e6f742064656c65746520616c6c207573657200000000000000000000000000600082015250565b60006121ea601383612068565b91506121f5826121b4565b602082019050919050565b60006020820190508181036000830152612219816121dd565b9050919050565b600061222b82611a71565b915061223683611a71565b925082820390508181111561224e5761224d612151565b5b92915050565b7f696e76616c6964207265717569726564206e756d626572206f66206f776e657260008201527f7300000000000000000000000000000000000000000000000000000000000000602082015250565b60006122b0602183612068565b91506122bb82612254565b604082019050919050565b600060208201905081810360008301526122df816122a3565b9050919050565b7f4e487b7100000000000000000000000000000000000000000000000000000000600052603260045260246000fd5b7f696e76616c696420616464726573730000000000000000000000000000000000600082015250565b600061234b600f83612068565b915061235682612315565b602082019050919050565b6000602082019050818103600083015261237a8161233e565b9050919050565b7f6f776e6572206578697374656400000000000000000000000000000000000000600082015250565b60006123b7600d83612068565b91506123c282612381565b602082019050919050565b600060208201905081810360008301526123e6816123aa565b9050919050565b60006123f882611a71565b91507fffffffffffffffffffffffffffffffffffffffffffffffffffffffffffffffff820361242a57612429612151565b5b600182019050919050565b7f6f776e6572206e6f742065786973740000000000000000000000000000000000600082015250565b600061246b600f83612068565b915061247682612435565b602082019050919050565b6000602082019050818103600083015261249a8161245e565b9050919050565b7f436f6e73656e737573206973206368616e67696e670000000000000000000000600082015250565b60006124d7601583612068565b91506124e2826124a1565b602082019050919050565b60006020820190508181036000830152612506816124ca565b9050919050565b7f696e73756666696369656e742062616c616e6365000000000000000000000000600082015250565b6000612543601483612068565b915061254e8261250d565b602082019050919050565b6000602082019050818103600083015261257281612536565b9050919050565b7f6e6f742065786973742069640000000000000000000000000000000000000000600082015250565b60006125af600c83612068565b91506125ba82612579565b602082019050919050565b600060208201905081810360008301526125de816125a2565b9050919050565b7f7573657220616c726561647920766f7465642074686973206964000000000000600082015250565b600061261b601a83612068565b9150612626826125e5565b602082019050919050565b6000602082019050818103600083015261264a8161260e565b9050919050565b7f494420616c7265616479207265736f6c76650000000000000000000000000000600082015250565b6000612687601283612068565b915061269282612651565b602082019050919050565b600060208201905081810360008301526126b68161267a565b9050919050565b60006060820190506126d26000830186611c8c565b6126df6020830185611a7b565b6126ec6040830184611a7b565b949350505050565b600081905092915050565b50565b600061270f6000836126f4565b915061271a826126ff565b600082019050919050565b600061273082612702565b9150819050919050565b7f7472616e73666572206661696c65640000000000000000000000000000000000600082015250565b6000612770600f83612068565b915061277b8261273a565b602082019050919050565b6000602082019050818103600083015261279f81612763565b9050919050565b600082825260208201905092915050565b60006127c282611aa5565b6127cc81856127a6565b93506127d783611ac1565b8060005b838110156128085781516127ef8882611b12565b97506127fa83611b2a565b9250506001810190506127db565b5085935050505092915050565b600060808201905061282a6000830187611c8c565b818103602083015261283c81866127b7565b9050818103604083015261285081856127b7565b905061285f6060830184611a7b565b95945050505050565b600060608201905061287d6000830186611eb2565b61288a6020830185611eb2565b6128976040830184611c8c565b94935050505056fea2646970667358221220df2ff2b80ea9728d78a87cd38f27eb58a27d818f0dc14c4622f5c68e55e98a9364736f6c63430008110033",
  "linkReferences": {},
  "deployedLinkReferences": {}
}